0000000001JUAN DELA CRUZ         D00050000
0000000001JUAN DELA CRUZ         W00020000
0000000002MARIA SANTOS           D00100000
0000000003PEDRO RAMIREZ          D00075000
0000000003PEDRO RAMIREZ          W00010000
0000000004LUISA GARCIA           D00030000
