0000000001JUAN DELA CRUZ           D000500000
0000000001JUAN DELA CRUZ           W000200000
0000000002MARIA SANTOS             D001000000
0000000003PEDRO RAMIREZ            D000750000
0000000003PEDRO RAMIREZ            W000100000
0000000004LUISA GARCIA             D000300000
0000000005PONCEE ENRILE            D005500000
0000000006PONCEE ENRILE            W000250000
0000000007MIKE BUSTABO             D000300000
0000000008HELLO KITTY              D001005000
0000000008HELLO KITTY              W001000000
0000000009LEBRON JAMES             D999999999
0000000010MARCELO BATUMBAKAL       D004500000
0000000010MARCELO BATUMBAKAL       W003000000
0000000011KUNGFU PANDA             D006700000
0000000011KUNGFU PANDA             W002000000